:0C0000000C946D000C9400000C940000A7
:10000C000C9400000C9400000C9400000C94000064
:10001C000C9400000C9400000C9400000C94000054
:10002C000C9400000C9400000C9400000C94000044
:10003C000C9400000C9400000C9400000C94000034
:10004C000C9400000C940000000102030405060748
:10005C000809101112131415161718192021222330
:10006C002425262728293031323334353637383990
:10007C0040414243444546474849505152535455D8
:10008C00565758590000646574696B206B653A00CB
:10009C006D656E6974206B653A0001002D4E414E02
:1000AC0000494E46000080C03C00780254000A0013
:1000BC00600292000A006A029C0002000600900096
:1000CC000100B402A6000200B802B2000000F894CD
:1000DC00EE27ECBBF1E0FBBFEBBFE5BFF8E1F1BDF8
:1000EC00E1BD8DE0A2E0BB27ED938A95E9F780E0B6
:1000FC0098E0A0E6ED930197E9F7E4EBF0E0859149
:10010C009591009761F0A591B59105901590BF015F
:10011C00F00105900D920197E1F7FB01F0CFEFE5AF
:10012C00EDBFE8E0EEBFC0E6D2E00C949D00E0E04D
:10013C00EBBBEABBE8BBEFEFE7BBE0E0E5BBEFEF07
:10014C00E4BBE0E0E2BBEFEFE1BBE0E0E3BFE2BF2A
:10015C00ECBFEFBDEEBDEDBDECBDE7BDE6BDEBBD4F
:10016C00EABDE9BDE8BDE2BDE5BDE4BDE3BDE5BF6B
:10017C00E4BFE9BFEAB9E0E8E8B9E0E0E0BFE6B91E
:10018C00EDB9E6BFA0E10E94AC01F20131962F015E
:10019C00A8E7B2E0A40DB51DEC91E2BB5A924A92CD
:1001AC00A4E7B2E00E941B01ECE3F0E0E415F505D6
:1001BC0059F444245524F30131963F01A8E7B2E0E9
:1001CC00A60DB71DEC91E8BB7A926A92A6E7B2E055
:1001DC000E941B010E947601E0E0EA93A0E00E94DD
:1001EC006901A0E6B2E00E949B01E0E0EA93A1E085
:1001FC000E946901AAE6B2E00E949B01EAE0EA9340
:10020C00A0E00E946901A4E7B2E00E949B01EAE031
:10021C00EA93A1E00E946901A6E7B2E00E949B016B
:10022C00AEE10E94D901B1CFFFCFBA93AA93A991A5
:10023C00B991E991F99130962AF4E095F0953196BF
:10024C006DE26D93E89480E197E20DD088EE93E037
:10025C000AD084E6992707D08AE005D06E2F10D0FB
:10026C0066276C9308956627E817F90720F06395C5
:10027C00E81BF90BC9F7662311F416F0089568947E
:10028C00605D6D930895AA93E5B3EF70AE2FE8818E
:10029C00E07FEA2BE5BB87E08A95F1F7AA9A81E12A
:1002AC008A95F1F7AA9881E18A95F1F77AC0AA9319
:1002BC00A881E9DFE881E295E883A881E4DF87EA99
:1002CC008A95F1F76EC0AA93E881F0E0E854FD4FEF
:1002DC00E081A981AE0FEBDF99808880229608958A
:1002EC00A2E0E5DFA3E00E94D901ACE0E0DFA1E0F1
:1002FC00DEDFA3E00E94D901E0E08E2E9E2E089551
:10030C00AA93A881AA3011F09B1448F0E0E0EA937C
:10031C008394A82DD8DFA881AA3009F442C0939405
:10032C00A89AA881C4DFA8983CC0BA93AA931A9340
:10033C00A981BA81ED91A983BA831E2FE03019F0FF
:10034C00A12FDEDFF5CF188123960895AA93E4B38D
:10035C00E06FE4BBA29AA09AA19AAA98A898A9982F
:10036C00B880E881E058E093BA02E881E054E09369
:10037C00BB02A4E10E94D9010E94DC010E94DC01B5
:10038C000E94DC01A0E27FDF8AEF90E00197F1F799
:10039C00A8E28DDFA4E08BDFA5E889DFA6E087DF8C
:1003AC009FDF21960895B0E00C94E401A0E30E9435
:1003BC0049018AEF90E00197F1F70895109639F012
:1003CC0084EC99E00197F1F7A8951197C9F7089576
:00000001FF
