:0C0000000C945F000C9400000C940000B5
:10000C000C9400000C9400000C9400000C94000064
:10001C000C9400000C9400000C9400000C94000054
:10002C000C9400000C9400000C9400000C94000044
:10003C000C9400000C9400000C9400000C94000034
:10004C000C9400000C940000000102030405060748
:10005C000809101112131415161718192021222330
:10006C002425262728293031323334353637383990
:10007C0040414243444546474849505152535455D8
:10008C0056575859000077656C636F6D6520746F17
:10009C0020696B6C630080C03C007002540010003F
:1000AC00600292000200060090000200AC02A20066
:1000BC000000F894EE27ECBBF1E0FBBFEBBFE5BF13
:1000CC00F8E1F1BDE1BD8DE0A2E0BB27ED938A958F
:1000DC00E9F780E098E0A0E6ED930197E9F7E4EA10
:1000EC00F0E085919591009761F0A591B5910590FF
:1000FC001590BF01F00105900D920197E1F7FB01FE
:10010C00F0CFEFE5EDBFE8E0EEBFC0E6D2E00C9437
:10011C008F00E0E0EBBBEABBE8BBEFEFE7BBE0E056
:10012C00E5BBEFEFE4BBE0E0E2BBEFEFE1BBE0E00F
:10013C00E3BFE2BFECBFEFBDEEBDEDBDECBDE7BD77
:10014C00E6BDEBBDEABDE9BDE8BDE2BDE5BDE4BD84
:10015C00E3BDE5BFE4BFE9BFEAB9E0E8E8B9E0E038
:10016C00E0BFE6B9EDB9E6BFA0E185D0F20131966A
:10017C002F01A0E7B2E0A40DB51DEC91E2BBECE3BE
:10018C00F0E0E415F50559F444245524F3013196B7
:10019C003F01A0E7B2E0A60DB71DEC91E8BB38D04B
:1001AC00E0E0EA93A0E027D0A0E6B2E053D0AEE1C5
:1001BC008BD0DCCFFFCFAA93E5B3EF70AE2FE881E5
:1001CC00E07FEA2BE5BB87E08A95F1F7AA9A81E1FB
:1001DC008A95F1F7AA9881E18A95F1F773C0AA93F1
:1001EC00A881E9DFE881E295E883A881E4DF87EA6A
:1001FC008A95F1F767C0AA93E881F0E0E455FD4FCA
:10020C00E081A981AE0FEBDF99808880229608955A
:10021C00A2E0E5DFA3E058D0ACE0E1DFA1E0DFDF56
:10022C00A3E052D0E0E08E2E9E2E0895AA93A881D2
:10023C00AA3011F09B1440F0E0E0EA938394A82DCF
:10024C00DADFA881AA30F1F19394A89AA881C7DFCC
:10025C00A89838C0BA93AA931A93A981BA81ED9140
:10026C00A983BA831E2FE03019F0A12FDFDFF5CF61
:10027C00188123960895AA93E4B3E06FE4BBA29A85
:10028C00A09AA19AAA98A898A998B880E881E05851
:10029C00E093AE02E881E054E093AF02A4E114D005
:1002AC0016D015D014D0A0E286DF8AEF90E001972B
:1002BC00F1F7A8E294DFA4E092DFA5E890DFA6E0D6
:1002CC008EDFA6DF21960895B0E00C947401A0E3B4
:1002DC0072DF8AEF90E00197F1F70895109639F0EC
:1002EC0084EC99E00197F1F7A8951197C9F7089557
:00000001FF
